{
  "_format": "hh-sol-artifact-1",
  "contractName": "NFT",
  "sourceName": "contracts/NFT.sol",
  "abi": [
    {
      "inputs": [],
      "stateMutability": "nonpayable",
      "type": "constructor"
    },
    {
      "inputs": [
        {
          "internalType": "address",
          "name": "sender",
          "type": "address"
        },
        {
          "internalType": "uint256",
          "name": "tokenId",
          "type": "uint256"
        },
        {
          "internalType": "address",
          "name": "owner",
          "type": "address"
        }
      ],
      "name": "ERC721IncorrectOwner",
      "type": "error"
    },
    {
      "inputs": [
        {
          "internalType": "address",
          "name": "operator",
          "type": "address"
        },
        {
          "internalType": "uint256",
          "name": "tokenId",
          "type": "uint256"
        }
      ],
      "name": "ERC721InsufficientApproval",
      "type": "error"
    },
    {
      "inputs": [
        {
          "internalType": "address",
          "name": "approver",
          "type": "address"
        }
      ],
      "name": "ERC721InvalidApprover",
      "type": "error"
    },
    {
      "inputs": [
        {
          "internalType": "address",
          "name": "operator",
          "type": "address"
        }
      ],
      "name": "ERC721InvalidOperator",
      "type": "error"
    },
    {
      "inputs": [
        {
          "internalType": "address",
          "name": "owner",
          "type": "address"
        }
      ],
      "name": "ERC721InvalidOwner",
      "type": "error"
    },
    {
      "inputs": [
        {
          "internalType": "address",
          "name": "receiver",
          "type": "address"
        }
      ],
      "name": "ERC721InvalidReceiver",
      "type": "error"
    },
    {
      "inputs": [
        {
          "internalType": "address",
          "name": "sender",
          "type": "address"
        }
      ],
      "name": "ERC721InvalidSender",
      "type": "error"
    },
    {
      "inputs": [
        {
          "internalType": "uint256",
          "name": "tokenId",
          "type": "uint256"
        }
      ],
      "name": "ERC721NonexistentToken",
      "type": "error"
    },
    {
      "anonymous": false,
      "inputs": [
        {
          "indexed": true,
          "internalType": "address",
          "name": "owner",
          "type": "address"
        },
        {
          "indexed": true,
          "internalType": "address",
          "name": "approved",
          "type": "address"
        },
        {
          "indexed": true,
          "internalType": "uint256",
          "name": "tokenId",
          "type": "uint256"
        }
      ],
      "name": "Approval",
      "type": "event"
    },
    {
      "anonymous": false,
      "inputs": [
        {
          "indexed": true,
          "internalType": "address",
          "name": "owner",
          "type": "address"
        },
        {
          "indexed": true,
          "internalType": "address",
          "name": "operator",
          "type": "address"
        },
        {
          "indexed": false,
          "internalType": "bool",
          "name": "approved",
          "type": "bool"
        }
      ],
      "name": "ApprovalForAll",
      "type": "event"
    },
    {
      "anonymous": false,
      "inputs": [
        {
          "indexed": false,
          "internalType": "uint256",
          "name": "_fromTokenId",
          "type": "uint256"
        },
        {
          "indexed": false,
          "internalType": "uint256",
          "name": "_toTokenId",
          "type": "uint256"
        }
      ],
      "name": "BatchMetadataUpdate",
      "type": "event"
    },
    {
      "anonymous": false,
      "inputs": [
        {
          "indexed": false,
          "internalType": "uint256",
          "name": "_tokenId",
          "type": "uint256"
        }
      ],
      "name": "MetadataUpdate",
      "type": "event"
    },
    {
      "anonymous": false,
      "inputs": [
        {
          "indexed": true,
          "internalType": "address",
          "name": "from",
          "type": "address"
        },
        {
          "indexed": true,
          "internalType": "address",
          "name": "to",
          "type": "address"
        },
        {
          "indexed": true,
          "internalType": "uint256",
          "name": "tokenId",
          "type": "uint256"
        }
      ],
      "name": "Transfer",
      "type": "event"
    },
    {
      "inputs": [
        {
          "internalType": "address",
          "name": "to",
          "type": "address"
        },
        {
          "internalType": "uint256",
          "name": "tokenId",
          "type": "uint256"
        }
      ],
      "name": "approve",
      "outputs": [],
      "stateMutability": "nonpayable",
      "type": "function"
    },
    {
      "inputs": [
        {
          "internalType": "address",
          "name": "owner",
          "type": "address"
        }
      ],
      "name": "balanceOf",
      "outputs": [
        {
          "internalType": "uint256",
          "name": "",
          "type": "uint256"
        }
      ],
      "stateMutability": "view",
      "type": "function"
    },
    {
      "inputs": [
        {
          "internalType": "uint256",
          "name": "tokenId",
          "type": "uint256"
        }
      ],
      "name": "getApproved",
      "outputs": [
        {
          "internalType": "address",
          "name": "",
          "type": "address"
        }
      ],
      "stateMutability": "view",
      "type": "function"
    },
    {
      "inputs": [
        {
          "internalType": "address",
          "name": "owner",
          "type": "address"
        },
        {
          "internalType": "address",
          "name": "operator",
          "type": "address"
        }
      ],
      "name": "isApprovedForAll",
      "outputs": [
        {
          "internalType": "bool",
          "name": "",
          "type": "bool"
        }
      ],
      "stateMutability": "view",
      "type": "function"
    },
    {
      "inputs": [
        {
          "internalType": "address",
          "name": "to",
          "type": "address"
        },
        {
          "internalType": "uint256",
          "name": "tokenId",
          "type": "uint256"
        },
        {
          "internalType": "string",
          "name": "_tokenURI",
          "type": "string"
        }
      ],
      "name": "mint",
      "outputs": [],
      "stateMutability": "nonpayable",
      "type": "function"
    },
    {
      "inputs": [],
      "name": "name",
      "outputs": [
        {
          "internalType": "string",
          "name": "",
          "type": "string"
        }
      ],
      "stateMutability": "view",
      "type": "function"
    },
    {
      "inputs": [
        {
          "internalType": "uint256",
          "name": "tokenId",
          "type": "uint256"
        }
      ],
      "name": "ownerOf",
      "outputs": [
        {
          "internalType": "address",
          "name": "",
          "type": "address"
        }
      ],
      "stateMutability": "view",
      "type": "function"
    },
    {
      "inputs": [
        {
          "internalType": "address",
          "name": "from",
          "type": "address"
        },
        {
          "internalType": "address",
          "name": "to",
          "type": "address"
        },
        {
          "internalType": "uint256",
          "name": "tokenId",
          "type": "uint256"
        }
      ],
      "name": "safeTransferFrom",
      "outputs": [],
      "stateMutability": "nonpayable",
      "type": "function"
    },
    {
      "inputs": [
        {
          "internalType": "address",
          "name": "from",
          "type": "address"
        },
        {
          "internalType": "address",
          "name": "to",
          "type": "address"
        },
        {
          "internalType": "uint256",
          "name": "tokenId",
          "type": "uint256"
        },
        {
          "internalType": "bytes",
          "name": "data",
          "type": "bytes"
        }
      ],
      "name": "safeTransferFrom",
      "outputs": [],
      "stateMutability": "nonpayable",
      "type": "function"
    },
    {
      "inputs": [
        {
          "internalType": "address",
          "name": "operator",
          "type": "address"
        },
        {
          "internalType": "bool",
          "name": "approved",
          "type": "bool"
        }
      ],
      "name": "setApprovalForAll",
      "outputs": [],
      "stateMutability": "nonpayable",
      "type": "function"
    },
    {
      "inputs": [
        {
          "internalType": "bytes4",
          "name": "interfaceId",
          "type": "bytes4"
        }
      ],
      "name": "supportsInterface",
      "outputs": [
        {
          "internalType": "bool",
          "name": "",
          "type": "bool"
        }
      ],
      "stateMutability": "view",
      "type": "function"
    },
    {
      "inputs": [],
      "name": "symbol",
      "outputs": [
        {
          "internalType": "string",
          "name": "",
          "type": "string"
        }
      ],
      "stateMutability": "view",
      "type": "function"
    },
    {
      "inputs": [
        {
          "internalType": "uint256",
          "name": "tokenId",
          "type": "uint256"
        }
      ],
      "name": "tokenURI",
      "outputs": [
        {
          "internalType": "string",
          "name": "",
          "type": "string"
        }
      ],
      "stateMutability": "view",
      "type": "function"
    },
    {
      "inputs": [
        {
          "internalType": "address",
          "name": "from",
          "type": "address"
        },
        {
          "internalType": "address",
          "name": "to",
          "type": "address"
        },
        {
          "internalType": "uint256",
          "name": "tokenId",
          "type": "uint256"
        }
      ],
      "name": "transferFrom",
      "outputs": [],
      "stateMutability": "nonpayable",
      "type": "function"
    }
  ],
  "bytecode": "0x60806040523480156200001157600080fd5b506040518060400160405280600b81526020017f416e6f74686572205472790000000000000000000000000000000000000000008152506040518060400160405280600281526020017f415400000000000000000000000000000000000000000000000000000000000081525081600090816200008f919062000324565b508060019081620000a1919062000324565b5050506200040b565b600081519050919050565b7f4e487b7100000000000000000000000000000000000000000000000000000000600052604160045260246000fd5b7f4e487b7100000000000000000000000000000000000000000000000000000000600052602260045260246000fd5b600060028204905060018216806200012c57607f821691505b602082108103620001425762000141620000e4565b5b50919050565b60008190508160005260206000209050919050565b60006020601f8301049050919050565b600082821b905092915050565b600060088302620001ac7fffffffffffffffffffffffffffffffffffffffffffffffffffffffffffffffff826200016d565b620001b886836200016d565b95508019841693508086168417925050509392505050565b6000819050919050565b6000819050919050565b600062000205620001ff620001f984620001d0565b620001da565b620001d0565b9050919050565b6000819050919050565b6200022183620001e4565b6200023962000230826200020c565b8484546200017a565b825550505050565b600090565b6200025062000241565b6200025d81848462000216565b505050565b5b8181101562000285576200027960008262000246565b60018101905062000263565b5050565b601f821115620002d4576200029e8162000148565b620002a9846200015d565b81016020851015620002b9578190505b620002d1620002c8856200015d565b83018262000262565b50505b505050565b600082821c905092915050565b6000620002f960001984600802620002d9565b1980831691505092915050565b6000620003148383620002e6565b9150826002028217905092915050565b6200032f82620000aa565b67ffffffffffffffff8111156200034b576200034a620000b5565b5b62000357825462000113565b6200036482828562000289565b600060209050601f8311600181146200039c576000841562000387578287015190505b62000393858262000306565b86555062000403565b601f198416620003ac8662000148565b60005b82811015620003d657848901518255600182019150602085019450602081019050620003af565b86831015620003f65784890151620003f2601f891682620002e6565b8355505b6001600288020188555050505b505050505050565b612323806200041b6000396000f3fe608060405234801561001057600080fd5b50600436106100ea5760003560e01c806370a082311161008c578063b88d4fde11610066578063b88d4fde1461025b578063c87b56dd14610277578063d3fc9864146102a7578063e985e9c5146102c3576100ea565b806370a08231146101f157806395d89b4114610221578063a22cb4651461023f576100ea565b8063095ea7b3116100c8578063095ea7b31461016d57806323b872dd1461018957806342842e0e146101a55780636352211e146101c1576100ea565b806301ffc9a7146100ef57806306fdde031461011f578063081812fc1461013d575b600080fd5b610109600480360381019061010491906117df565b6102f3565b6040516101169190611827565b60405180910390f35b610127610354565b60405161013491906118d2565b60405180910390f35b6101576004803603810190610152919061192a565b6103e6565b6040516101649190611998565b60405180910390f35b610187600480360381019061018291906119df565b610402565b005b6101a3600480360381019061019e9190611a1f565b610418565b005b6101bf60048036038101906101ba9190611a1f565b61051a565b005b6101db60048036038101906101d6919061192a565b61053a565b6040516101e89190611998565b60405180910390f35b61020b60048036038101906102069190611a72565b61054c565b6040516102189190611aae565b60405180910390f35b610229610606565b60405161023691906118d2565b60405180910390f35b61025960048036038101906102549190611af5565b610698565b005b61027560048036038101906102709190611c6a565b6106ae565b005b610291600480360381019061028c919061192a565b6106cb565b60405161029e91906118d2565b60405180910390f35b6102c160048036038101906102bc9190611d8e565b6107de565b005b6102dd60048036038101906102d89190611dfd565b6107f7565b6040516102ea9190611827565b60405180910390f35b6000634906490660e01b7bffffffffffffffffffffffffffffffffffffffffffffffffffffffff1916827bffffffffffffffffffffffffffffffffffffffffffffffffffffffff1916148061034d575061034c8261088b565b5b9050919050565b60606000805461036390611e6c565b80601f016020809104026020016040519081016040528092919081815260200182805461038f90611e6c565b80156103dc5780601f106103b1576101008083540402835291602001916103dc565b820191906000526020600020905b8154815290600101906020018083116103bf57829003601f168201915b5050505050905090565b60006103f18261096d565b506103fb826109f5565b9050919050565b610414828261040f610a32565b610a3a565b5050565b600073ffffffffffffffffffffffffffffffffffffffff168273ffffffffffffffffffffffffffffffffffffffff160361048a5760006040517f64a0ae920000000000000000000000000000000000000000000000000000000081526004016104819190611998565b60405180910390fd5b600061049e8383610499610a32565b610a4c565b90508373ffffffffffffffffffffffffffffffffffffffff168173ffffffffffffffffffffffffffffffffffffffff1614610514578382826040517f64283d7b00000000000000000000000000000000000000000000000000000000815260040161050b93929190611e9d565b60405180910390fd5b50505050565b610535838383604051806020016040528060008152506106ae565b505050565b60006105458261096d565b9050919050565b60008073ffffffffffffffffffffffffffffffffffffffff168273ffffffffffffffffffffffffffffffffffffffff16036105bf5760006040517f89c62b640000000000000000000000000000000000000000000000000000000081526004016105b69190611998565b60405180910390fd5b600360008373ffffffffffffffffffffffffffffffffffffffff1673ffffffffffffffffffffffffffffffffffffffff168152602001908152602001600020549050919050565b60606001805461061590611e6c565b80601f016020809104026020016040519081016040528092919081815260200182805461064190611e6c565b801561068e5780601f106106635761010080835404028352916020019161068e565b820191906000526020600020905b81548152906001019060200180831161067157829003601f168201915b5050505050905090565b6106aa6106a3610a32565b8383610c66565b5050565b6106b9848484610418565b6106c584848484610dd5565b50505050565b60606106d68261096d565b5060006006600084815260200190815260200160002080546106f790611e6c565b80601f016020809104026020016040519081016040528092919081815260200182805461072390611e6c565b80156107705780601f1061074557610100808354040283529160200191610770565b820191906000526020600020905b81548152906001019060200180831161075357829003601f168201915b505050505090506000610781610f8c565b905060008151036107965781925050506107d9565b6000825111156107cb5780826040516020016107b3929190611f10565b604051602081830303815290604052925050506107d9565b6107d484610fa3565b925050505b919050565b6107e8838361100c565b6107f28282611105565b505050565b6000600560008473ffffffffffffffffffffffffffffffffffffffff1673ffffffffffffffffffffffffffffffffffffffff16815260200190815260200160002060008373ffffffffffffffffffffffffffffffffffffffff1673ffffffffffffffffffffffffffffffffffffffff16815260200190815260200160002060009054906101000a900460ff16905092915050565b60007f80ac58cd000000000000000000000000000000000000000000000000000000007bffffffffffffffffffffffffffffffffffffffffffffffffffffffff1916827bffffffffffffffffffffffffffffffffffffffffffffffffffffffff1916148061095657507f5b5e139f000000000000000000000000000000000000000000000000000000007bffffffffffffffffffffffffffffffffffffffffffffffffffffffff1916827bffffffffffffffffffffffffffffffffffffffffffffffffffffffff1916145b80610966575061096582611161565b5b9050919050565b600080610979836111cb565b9050600073ffffffffffffffffffffffffffffffffffffffff168173ffffffffffffffffffffffffffffffffffffffff16036109ec57826040517f7e2732890000000000000000000000000000000000000000000000000000000081526004016109e39190611aae565b60405180910390fd5b80915050919050565b60006004600083815260200190815260200160002060009054906101000a900473ffffffffffffffffffffffffffffffffffffffff169050919050565b600033905090565b610a478383836001611208565b505050565b600080610a58846111cb565b9050600073ffffffffffffffffffffffffffffffffffffffff168373ffffffffffffffffffffffffffffffffffffffff1614610a9a57610a998184866113cd565b5b600073ffffffffffffffffffffffffffffffffffffffff168173ffffffffffffffffffffffffffffffffffffffff1614610b2b57610adc600085600080611208565b6001600360008373ffffffffffffffffffffffffffffffffffffffff1673ffffffffffffffffffffffffffffffffffffffff168152602001908152602001600020600082825403925050819055505b600073ffffffffffffffffffffffffffffffffffffffff168573ffffffffffffffffffffffffffffffffffffffff1614610bae576001600360008773ffffffffffffffffffffffffffffffffffffffff1673ffffffffffffffffffffffffffffffffffffffff168152602001908152602001600020600082825401925050819055505b846002600086815260200190815260200160002060006101000a81548173ffffffffffffffffffffffffffffffffffffffff021916908373ffffffffffffffffffffffffffffffffffffffff160217905550838573ffffffffffffffffffffffffffffffffffffffff168273ffffffffffffffffffffffffffffffffffffffff167fddf252ad1be2c89b69c2b068fc378daa952ba7f163c4a11628f55a4df523b3ef60405160405180910390a4809150509392505050565b600073ffffffffffffffffffffffffffffffffffffffff168273ffffffffffffffffffffffffffffffffffffffff1603610cd757816040517f5b08ba18000000000000000000000000000000000000000000000000000000008152600401610cce9190611998565b60405180910390fd5b80600560008573ffffffffffffffffffffffffffffffffffffffff1673ffffffffffffffffffffffffffffffffffffffff16815260200190815260200160002060008473ffffffffffffffffffffffffffffffffffffffff1673ffffffffffffffffffffffffffffffffffffffff16815260200190815260200160002060006101000a81548160ff0219169083151502179055508173ffffffffffffffffffffffffffffffffffffffff168373ffffffffffffffffffffffffffffffffffffffff167f17307eab39ab6107e8899845ad3d59bd9653f200f220920489ca2b5937696c3183604051610dc89190611827565b60405180910390a3505050565b60008373ffffffffffffffffffffffffffffffffffffffff163b1115610f86578273ffffffffffffffffffffffffffffffffffffffff1663150b7a02610e19610a32565b8685856040518563ffffffff1660e01b8152600401610e3b9493929190611f89565b6020604051808303816000875af1925050508015610e7757506040513d601f19601f82011682018060405250810190610e749190611fea565b60015b610efb573d8060008114610ea7576040519150601f19603f3d011682016040523d82523d6000602084013e610eac565b606091505b506000815103610ef357836040517f64a0ae92000000000000000000000000000000000000000000000000000000008152600401610eea9190611998565b60405180910390fd5b805181602001fd5b63150b7a0260e01b7bffffffffffffffffffffffffffffffffffffffffffffffffffffffff1916817bffffffffffffffffffffffffffffffffffffffffffffffffffffffff191614610f8457836040517f64a0ae92000000000000000000000000000000000000000000000000000000008152600401610f7b9190611998565b60405180910390fd5b505b50505050565b606060405180602001604052806000815250905090565b6060610fae8261096d565b506000610fb9610f8c565b90506000815111610fd95760405180602001604052806000815250611004565b80610fe384611491565b604051602001610ff4929190611f10565b6040516020818303038152906040525b915050919050565b600073ffffffffffffffffffffffffffffffffffffffff168273ffffffffffffffffffffffffffffffffffffffff160361107e5760006040517f64a0ae920000000000000000000000000000000000000000000000000000000081526004016110759190611998565b60405180910390fd5b600061108c83836000610a4c565b9050600073ffffffffffffffffffffffffffffffffffffffff168173ffffffffffffffffffffffffffffffffffffffff16146111005760006040517f73c6ac6e0000000000000000000000000000000000000000000000000000000081526004016110f79190611998565b60405180910390fd5b505050565b8060066000848152602001908152602001600020908161112591906121c3565b507ff8e1a15aba9398e019f0b49df1a4fde98ee17ae345cb5f6b5e2c27f5033e8ce7826040516111559190611aae565b60405180910390a15050565b60007f01ffc9a7000000000000000000000000000000000000000000000000000000007bffffffffffffffffffffffffffffffffffffffffffffffffffffffff1916827bffffffffffffffffffffffffffffffffffffffffffffffffffffffff1916149050919050565b60006002600083815260200190815260200160002060009054906101000a900473ffffffffffffffffffffffffffffffffffffffff169050919050565b80806112415750600073ffffffffffffffffffffffffffffffffffffffff168273ffffffffffffffffffffffffffffffffffffffff1614155b156113755760006112518461096d565b9050600073ffffffffffffffffffffffffffffffffffffffff168373ffffffffffffffffffffffffffffffffffffffff16141580156112bc57508273ffffffffffffffffffffffffffffffffffffffff168173ffffffffffffffffffffffffffffffffffffffff1614155b80156112cf57506112cd81846107f7565b155b1561131157826040517fa9fbf51f0000000000000000000000000000000000000000000000000000000081526004016113089190611998565b60405180910390fd5b811561137357838573ffffffffffffffffffffffffffffffffffffffff168273ffffffffffffffffffffffffffffffffffffffff167f8c5be1e5ebec7d5bd14f71427d1e84f3dd0314c0f7b2291e5b200ac8c7c3b92560405160405180910390a45b505b836004600085815260200190815260200160002060006101000a81548173ffffffffffffffffffffffffffffffffffffffff021916908373ffffffffffffffffffffffffffffffffffffffff16021790555050505050565b6113d883838361155f565b61148c57600073ffffffffffffffffffffffffffffffffffffffff168373ffffffffffffffffffffffffffffffffffffffff160361144d57806040517f7e2732890000000000000000000000000000000000000000000000000000000081526004016114449190611aae565b60405180910390fd5b81816040517f177e802f000000000000000000000000000000000000000000000000000000008152600401611483929190612295565b60405180910390fd5b505050565b6060600060016114a084611620565b01905060008167ffffffffffffffff8111156114bf576114be611b3f565b5b6040519080825280601f01601f1916602001820160405280156114f15781602001600182028036833780820191505090505b509050600082602001820190505b600115611554578080600190039150507f3031323334353637383961626364656600000000000000000000000000000000600a86061a8153600a8581611548576115476122be565b5b049450600085036114ff575b819350505050919050565b60008073ffffffffffffffffffffffffffffffffffffffff168373ffffffffffffffffffffffffffffffffffffffff161415801561161757508273ffffffffffffffffffffffffffffffffffffffff168473ffffffffffffffffffffffffffffffffffffffff1614806115d857506115d784846107f7565b5b8061161657508273ffffffffffffffffffffffffffffffffffffffff166115fe836109f5565b73ffffffffffffffffffffffffffffffffffffffff16145b5b90509392505050565b600080600090507a184f03e93ff9f4daa797ed6e38ed64bf6a1f010000000000000000831061167e577a184f03e93ff9f4daa797ed6e38ed64bf6a1f0100000000000000008381611674576116736122be565b5b0492506040810190505b6d04ee2d6d415b85acef810000000083106116bb576d04ee2d6d415b85acef810000000083816116b1576116b06122be565b5b0492506020810190505b662386f26fc1000083106116ea57662386f26fc1000083816116e0576116df6122be565b5b0492506010810190505b6305f5e1008310611713576305f5e1008381611709576117086122be565b5b0492506008810190505b612710831061173857612710838161172e5761172d6122be565b5b0492506004810190505b6064831061175b5760648381611751576117506122be565b5b0492506002810190505b600a831061176a576001810190505b80915050919050565b6000604051905090565b600080fd5b600080fd5b60007fffffffff0000000000000000000000000000000000000000000000000000000082169050919050565b6117bc81611787565b81146117c757600080fd5b50565b6000813590506117d9816117b3565b92915050565b6000602082840312156117f5576117f461177d565b5b6000611803848285016117ca565b91505092915050565b60008115159050919050565b6118218161180c565b82525050565b600060208201905061183c6000830184611818565b92915050565b600081519050919050565b600082825260208201905092915050565b60005b8381101561187c578082015181840152602081019050611861565b60008484015250505050565b6000601f19601f8301169050919050565b60006118a482611842565b6118ae818561184d565b93506118be81856020860161185e565b6118c781611888565b840191505092915050565b600060208201905081810360008301526118ec8184611899565b905092915050565b6000819050919050565b611907816118f4565b811461191257600080fd5b50565b600081359050611924816118fe565b92915050565b6000602082840312156119405761193f61177d565b5b600061194e84828501611915565b91505092915050565b600073ffffffffffffffffffffffffffffffffffffffff82169050919050565b600061198282611957565b9050919050565b61199281611977565b82525050565b60006020820190506119ad6000830184611989565b92915050565b6119bc81611977565b81146119c757600080fd5b50565b6000813590506119d9816119b3565b92915050565b600080604083850312156119f6576119f561177d565b5b6000611a04858286016119ca565b9250506020611a1585828601611915565b9150509250929050565b600080600060608486031215611a3857611a3761177d565b5b6000611a46868287016119ca565b9350506020611a57868287016119ca565b9250506040611a6886828701611915565b9150509250925092565b600060208284031215611a8857611a8761177d565b5b6000611a96848285016119ca565b91505092915050565b611aa8816118f4565b82525050565b6000602082019050611ac36000830184611a9f565b92915050565b611ad28161180c565b8114611add57600080fd5b50565b600081359050611aef81611ac9565b92915050565b60008060408385031215611b0c57611b0b61177d565b5b6000611b1a858286016119ca565b9250506020611b2b85828601611ae0565b9150509250929050565b600080fd5b600080fd5b7f4e487b7100000000000000000000000000000000000000000000000000000000600052604160045260246000fd5b611b7782611888565b810181811067ffffffffffffffff82111715611b9657611b95611b3f565b5b80604052505050565b6000611ba9611773565b9050611bb58282611b6e565b919050565b600067ffffffffffffffff821115611bd557611bd4611b3f565b5b611bde82611888565b9050602081019050919050565b82818337600083830152505050565b6000611c0d611c0884611bba565b611b9f565b905082815260208101848484011115611c2957611c28611b3a565b5b611c34848285611beb565b509392505050565b600082601f830112611c5157611c50611b35565b5b8135611c61848260208601611bfa565b91505092915050565b60008060008060808587031215611c8457611c8361177d565b5b6000611c92878288016119ca565b9450506020611ca3878288016119ca565b9350506040611cb487828801611915565b925050606085013567ffffffffffffffff811115611cd557611cd4611782565b5b611ce187828801611c3c565b91505092959194509250565b600067ffffffffffffffff821115611d0857611d07611b3f565b5b611d1182611888565b9050602081019050919050565b6000611d31611d2c84611ced565b611b9f565b905082815260208101848484011115611d4d57611d4c611b3a565b5b611d58848285611beb565b509392505050565b600082601f830112611d7557611d74611b35565b5b8135611d85848260208601611d1e565b91505092915050565b600080600060608486031215611da757611da661177d565b5b6000611db5868287016119ca565b9350506020611dc686828701611915565b925050604084013567ffffffffffffffff811115611de757611de6611782565b5b611df386828701611d60565b9150509250925092565b60008060408385031215611e1457611e1361177d565b5b6000611e22858286016119ca565b9250506020611e33858286016119ca565b9150509250929050565b7f4e487b7100000000000000000000000000000000000000000000000000000000600052602260045260246000fd5b60006002820490506001821680611e8457607f821691505b602082108103611e9757611e96611e3d565b5b50919050565b6000606082019050611eb26000830186611989565b611ebf6020830185611a9f565b611ecc6040830184611989565b949350505050565b600081905092915050565b6000611eea82611842565b611ef48185611ed4565b9350611f0481856020860161185e565b80840191505092915050565b6000611f1c8285611edf565b9150611f288284611edf565b91508190509392505050565b600081519050919050565b600082825260208201905092915050565b6000611f5b82611f34565b611f658185611f3f565b9350611f7581856020860161185e565b611f7e81611888565b840191505092915050565b6000608082019050611f9e6000830187611989565b611fab6020830186611989565b611fb86040830185611a9f565b8181036060830152611fca8184611f50565b905095945050505050565b600081519050611fe4816117b3565b92915050565b60006020828403121561200057611fff61177d565b5b600061200e84828501611fd5565b91505092915050565b60008190508160005260206000209050919050565b60006020601f8301049050919050565b600082821b905092915050565b6000600883026120797fffffffffffffffffffffffffffffffffffffffffffffffffffffffffffffffff8261203c565b612083868361203c565b95508019841693508086168417925050509392505050565b6000819050919050565b60006120c06120bb6120b6846118f4565b61209b565b6118f4565b9050919050565b6000819050919050565b6120da836120a5565b6120ee6120e6826120c7565b848454612049565b825550505050565b600090565b6121036120f6565b61210e8184846120d1565b505050565b5b81811015612132576121276000826120fb565b600181019050612114565b5050565b601f8211156121775761214881612017565b6121518461202c565b81016020851015612160578190505b61217461216c8561202c565b830182612113565b50505b505050565b600082821c905092915050565b600061219a6000198460080261217c565b1980831691505092915050565b60006121b38383612189565b9150826002028217905092915050565b6121cc82611842565b67ffffffffffffffff8111156121e5576121e4611b3f565b5b6121ef8254611e6c565b6121fa828285612136565b600060209050601f83116001811461222d576000841561221b578287015190505b61222585826121a7565b86555061228d565b601f19841661223b86612017565b60005b828110156122635784890151825560018201915060208501945060208101905061223e565b86831015612280578489015161227c601f891682612189565b8355505b6001600288020188555050505b505050505050565b60006040820190506122aa6000830185611989565b6122b76020830184611a9f565b9392505050565b7f4e487b7100000000000000000000000000000000000000000000000000000000600052601260045260246000fdfea26469706673582212207beb24158b3a9aad5e5c0e9edc6ad8bfca5e8f9248d7cbd214b83c131caa68e264736f6c63430008130033",
  "linkReferences": {},
  "deployedLinkReferences": {}
}